20250323-18:36:12.562007000 : 8=FIX.4.4|9=69|35=A|34=1|49=CLIENT1|52=20250323-18:36:12.561|56=SERVER1|98=0|108=30|10=255|
20250323-18:37:12.118900000 : 8=FIX.4.4|9=69|35=A|34=2|49=CLIENT1|52=20250323-18:37:12.118|56=SERVER1|98=0|108=30|10=255|
20250323-18:38:12.692402000 : 8=FIX.4.4|9=69|35=A|34=3|49=CLIENT1|52=20250323-18:38:12.692|56=SERVER1|98=0|108=30|10=008|
20250323-18:39:12.234255000 : 8=FIX.4.4|9=69|35=A|34=4|49=CLIENT1|52=20250323-18:39:12.234|56=SERVER1|98=0|108=30|10=002|
20250323-18:40:12.061258000 : 8=FIX.4.4|9=69|35=A|34=5|49=CLIENT1|52=20250323-18:40:12.061|56=SERVER1|98=0|108=30|10=249|
20250323-18:41:12.595396000 : 8=FIX.4.4|9=69|35=A|34=6|49=CLIENT1|52=20250323-18:41:12.595|56=SERVER1|98=0|108=30|10=007|
20250323-18:42:12.496892000 : 8=FIX.4.4|9=69|35=A|34=7|49=CLIENT1|52=20250323-18:42:12.496|56=SERVER1|98=0|108=30|10=009|
20250323-18:43:12.515593000 : 8=FIX.4.4|9=69|35=A|34=8|49=CLIENT1|52=20250323-18:43:12.515|56=SERVER1|98=0|108=30|10=003|
20250323-18:44:12.538415000 : 8=FIX.4.4|9=69|35=A|34=9|49=CLIENT1|52=20250323-18:44:12.538|56=SERVER1|98=0|108=30|10=010|
20250323-18:45:12.225744000 : 8=FIX.4.4|9=70|35=A|34=10|49=CLIENT1|52=20250323-18:45:12.225|56=SERVER1|98=0|108=30|10=036|
20250323-18:46:12.341946000 : 8=FIX.4.4|9=70|35=A|34=11|49=CLIENT1|52=20250323-18:46:12.341|56=SERVER1|98=0|108=30|10=037|
20250323-18:47:12.249820000 : 8=FIX.4.4|9=70|35=A|34=12|49=CLIENT1|52=20250323-18:47:12.249|56=SERVER1|98=0|108=30|10=046|
20250323-18:48:12.156516000 : 8=FIX.4.4|9=70|35=A|34=13|49=CLIENT1|52=20250323-18:48:12.156|56=SERVER1|98=0|108=30|10=045|
20250323-18:49:12.370963000 : 8=FIX.4.4|9=70|35=A|34=14|49=CLIENT1|52=20250323-18:49:12.370|56=SERVER1|98=0|108=30|10=045|
20250323-18:50:12.058650000 : 8=FIX.4.4|9=70|35=A|34=15|49=CLIENT1|52=20250323-18:50:12.058|56=SERVER1|98=0|108=30|10=041|
20250323-20:18:19.070082000 : 8=FIX.4.4|9=70|35=A|34=16|49=CLIENT1|52=20250323-20:18:19.069|56=SERVER1|98=0|108=30|10=048|
20250323-20:18:19.100777000 : 8=FIX.4.4|9=65|35=A|49=SERVER1|56=CLIENT1|34=1|52=20250323-20:18:19|98=0|108=30|10=049|
20250323-20:18:38.799729000 : 8=FIX.4.4|9=128|35=D|34=17|49=CLIENT1|52=20250323-20:18:38.799|56=SERVER1|11=ORDER1|38=100|40=2|44=25.5|54=1|55=ZVZZT|59=0|60=20250323-20:18:38|10=069|
20250323-20:18:47.705234000 : 8=FIX.4.4|9=53|35=0|49=SERVER1|56=CLIENT1|34=2|52=20250323-20:18:47|10=006|
20250323-20:18:51.721508000 : 8=FIX.4.4|9=128|35=D|34=18|49=CLIENT1|52=20250323-20:18:51.721|56=SERVER1|11=ORDER2|38=100|40=2|44=25.5|54=1|55=ZVZZT|59=0|60=20250323-20:18:51|10=046|
