20250323-16:46:27.925875000 : 8=FIX.4.4|9=69|35=A|34=1|49=CLIENT1|52=20250323-16:46:27.925|56=SERVER1|98=0|108=30|10=008|
20250323-16:46:27.947294000 : 8=FIX.4.4|9=65|35=A|49=SERVER1|56=CLIENT1|34=6|52=20250323-16:46:27|98=0|108=30|10=059|
20250323-16:46:27.947419000 : 8=FIX.4.4|9=66|35=2|34=2|49=CLIENT1|52=20250323-16:46:27.947|56=SERVER1|7=1|16=0|10=093|
20250323-16:46:27.947668000 : 8=FIX.4.4|9=125|35=D|34=3|49=CLIENT1|52=20250323-16:46:27.947|56=SERVER1|11=ORDER1|38=100|40=2|44=25|54=1|55=ZVZZT|59=0|60=20250323-16:46:27|10=173|
20250323-16:46:39.950580000 : 8=FIX.4.4|9=53|35=0|49=SERVER1|56=CLIENT1|34=7|52=20250323-16:46:39|10=018|
20250323-16:46:57.905537000 : 8=FIX.4.4|9=57|35=0|34=4|49=CLIENT1|52=20250323-16:46:57.905|56=SERVER1|10=223|
20250323-16:47:03.883461000 : 8=FIX.4.4|9=66|35=1|34=5|49=CLIENT1|52=20250323-16:47:03.883|56=SERVER1|112=TEST|10=240|
20250323-16:47:03.901812000 : 8=FIX.4.4|9=62|35=0|49=SERVER1|56=CLIENT1|34=8|52=20250323-16:47:03|112=TEST|10=029|
20250323-16:47:09.983617000 : 8=FIX.4.4|9=53|35=0|49=SERVER1|56=CLIENT1|34=9|52=20250323-16:47:09|10=018|
20250323-16:47:27.948190000 : 8=FIX.4.4|9=125|35=D|34=6|49=CLIENT1|52=20250323-16:47:27.947|56=SERVER1|11=ORDER2|38=100|40=2|44=25|54=1|55=ZVZZT|59=0|60=20250323-16:47:27|10=179|
