20250323-13:46:46.853002000 : 8=FIX.4.4|9=69|35=A|34=1|49=CLIENT1|52=20250323-13:46:46.852|56=SERVER1|98=0|108=30|10=005|
